:1000000071C100008BC1000089C1000087C10000E0
:1000100085C1000083C1000081C100007FC10000D4
:100020007DC100007BC1000079C1000077C10000E4
:1000300075C1000073C1000071C100000C94FE0C7A
:100040006DC100006BC1000069C1000067C1000004
:1000500065C100000C940E0A61C100005FC1000080
:100060005DC100000C94140C59C100000C94630C89
:1000700055C1000053C1000051C100004FC1000034
:100080004DC100004BC1000049C1000047C1000044
:1000900045C1000043C1000041C100003FC1000054
:1000A0003DC100003BC1000039C1000037C1000064
:1000B00035C1000033C1000031C100002FC1000074
:1000C0002DC100002BC1000029C100000C94B20911
:1000D0000C948B0923C1000021C100001FC1000046
:1000E0001DC1000000C0C101C30302C2C60607C78C
:1000F00005C5C404CC0C0DCD0FCFCE0E0ACACB0B58
:10010000C90908C8D81819D91BDBDA1A1EDEDF1F87
:10011000DD1D1CDC14D4D515D71716D6D21213D377
:1001200011D1D010F03031F133F3F23236F6F73727
:10013000F53534F43CFCFD3DFF3F3EFEFA3A3BFB17
:1001400039F9F83828E8E929EB2B2AEAEE2E2FEFC7
:100150002DEDEC2CE42425E527E7E62622E2E32337
:10016000E12120E0A06061A163A3A26266A6A76767
:10017000A56564A46CACAD6DAF6F6EAEAA6A6BABD7
:1001800069A9A86878B8B979BB7B7ABABE7E7FBF07
:100190007DBDBC7CB47475B577B7B67672B2B373F7
:1001A000B17170B0509091519353529296565797A7
:1001B000559594549C5C5D9D5F9F9E5E5A9A9B5B97
:1001C00099595898884849894B8B8A4A4E8E8F4F47
:1001D0008D4D4C8C448485458747468682424383B7
:1001E0004181804000C1814001C0804101C0804107
:1001F00000C1814001C0804100C1814000C18140F7
:1002000001C0804101C0804100C1814000C18140E6
:1002100001C0804100C1814001C0804101C08041D6
:1002200000C1814001C0804100C1814000C18140C6
:1002300001C0804100C1814001C0804101C08041B6
:1002400000C1814000C1814001C0804101C08041A6
:1002500000C1814001C0804100C1814000C1814096
:1002600001C0804101C0804100C1814000C1814086
:1002700001C0804100C1814001C0804101C0804176
:1002800000C1814000C1814001C0804101C0804166
:1002900000C1814001C0804100C1814000C1814056
:1002A00001C0804100C1814001C0804101C0804146
:1002B00000C1814001C0804100C1814000C1814036
:1002C00001C0804101C0804100C1814000C1814026
:1002D00001C0804100C1814001C0804101C0804116
:1002E00000C1814011241FBECFEFD1E2DEBFCDBFE0
:1002F00012E0A0E0B2E0ECEDFAE102C005900D9250
:10030000AA33B107D9F724E0AAE3B2E001C01D92F5
:10031000A432B207E1F7F2D20C946C0D71CEE1E693
:10032000F0E020E82083108211B812B814B815B894
:1003300017B818B81AB81BB884E08DB91EB810BA2F
:1003400011BA13BA14BA109201011092020110925C
:1003500004011092050110920701109208018FEF1D
:1003600080930A0110920B011092690010926A00AA
:100370001DBA10926B0010926C0010926D001092DA
:1003800068001092C00088ED8093C10096E09093C1
:10039000C2001092C50083E38093C4001092C8008D
:1003A00038E13093C9009093CA001092CD00809339
:1003B000CC001092D0003093D1009093D2001092D4
:1003C000D5008093D4001092310120BF10927B00A1
:1003D00010927F0010927A001CBC1092BC0008950D
:1003E0001F93CF93DF93C62FD0E02197C80FD91F5B
:1003F00018810E94FA0B81E09881911380E0DF91CF
:10040000CF911F910895DF92EF92FF920F931F9368
:10041000CF93DF93D22EE701641305C0E1DF882379
:1004200011F018822BC09881F8018081911107C0CA
:100430008150F801808388818F5F88831EC02D2DB5
:1004400030E0843058F48CE0829FF001839FF00DFF
:100450001124EE5BFD4F81E083870AC08CE0829F10
:10046000F001839FF00D1124EE5BFD4F81E0828748
:10047000F80180818F5F8083188280E0DF91CF91C7
:100480001F910F91FF90EF90DF900895AF92BF9270
:10049000CF92DF92FF920F931F93CF93DF93CDB74D
:1004A000DEB72A970FB6F894DEBF0FBECDBF5A0154
:1004B0003AE08E010F5F1F4FD801E32F1D92EA959E
:1004C000E9F7482F50E09CE0899FF0011124EE5B92
:1004D000FD4F908193706F01C90ED11CD601129609
:1004E000FC906E01B2E0CB0ED11C99E0D6011D92BA
:1004F0009A95E9F78F5F8A83DB019C919230C9F06E
:1005000018F4992331F05AC0943021F1963079F1E2
:1005100055C09781911102C082E030C097E0D501AB
:100520009C939BEC998380688A8382E08B83FE8214
:100530000EC09781992311F084E020C097E0D50187
:100540009C939BEC998380688A8381E08B8397E0FE
:10055000F92E35C0D5013C938BED898381E08B83E7
:10056000211102C0818101C08FEF8D8324C080855D
:10057000811107C08681811104C088E0FB0180835E
:1005800026C08AE0D5018C938BED898382E08B8332
:100590008CE0849FF001859FF00D1124EE5BFD4FF0
:1005A000808183708C8382818E8383818F83848119
:1005B0008887858189878AE0F82E01C0F12C6F2D0C
:1005C000C8010E94FA0B6F2DC8010E94CB0C2A961D
:1005D0000FB6F894DEBF0FBECDBFDF91CF911F9154
:1005E0000F91FF90DF90CF90BF90AF9008952F9222
:1005F0003F924F925F926F927F928F929F92AF92B3
:10060000BF92CF92DF92EF92FF920F931F93CF93FF
:10061000DF93CDB7DEB72B970FB6F894DEBF0FBED2
:10062000CDBF582E4B01242E2B879E012F5F3F4FAD
:1006300039018AE0F90111928A95E9F76AE0C90166
:100640000E94B30C382EA52CB12CFCE05F9EC0019B
:1006500011249C012E5B3D4F6901F901808183705B
:10066000E80FF11D42800E94DF0C6091410270E0B2
:1006700081ED90E076D181E4E82E82E0F82E8401CD
:10068000252D422D632DC301BEDE882309F470C0E1
:10069000F4018081F601843010F4138601C01286C3
:1006A000F40180818330D1F018F4813039F060C0DA
:1006B0008530A1F1873009F449C05AC08E814812B3
:1006C00057C08CE08A9DF0018B9DF00D1124EE5BEC
:1006D000FD4F178284E0F40180834AC09E81491651
:1006E00091F08CE08A9DF0018B9DF00D1124EE5B62
:1006F000FD4F8085811107C081E0808780818370F4
:10070000E80FF11D92838CE08A9DF0018B9DF00D26
:100710001124EE5BFD4F8D8181832AC0FB85FF2371
:1007200039F18CE08A9DF0018B9DF00D1124EE5B78
:10073000FD4F8C8180838D8181838E8182838F8127
:100740008383888584838985858312C08C818370A7
:10075000FE01E80FF11D868148120AC08CE08A9DD7
:10076000F0018B9DF00D1124EE5BFD4F108616827B
:100770002B960FB6F894DEBF0FBECDBFDF91CF91A1
:100780001F910F91FF90EF90DF90CF90BF90AF90AF
:100790009F908F907F906F905F904F903F902F90A1
:1007A00008950F931F93CF9380914002883038F0C3
:1007B00080913F028F5F80933F02109240028091B0
:1007C0003F028330C8F50E94F30C00913B02109168
:1007D0003C0220913D0230913E02DC01CB01801BA6
:1007E000910BA20BB30B81369A4EA105B10520F5F2
:1007F0006091400270E088EC90E0B3D0C09140027C
:1008000020E0C0FD11C04AE352E060E472E0809154
:100810003F023CDE80914002C8131DC0809140021F
:100820008F5F8093400217C040913A0260E472E00B
:1008300080913F02DCDEEECF10923F021092400228
:100840000E94F30C60933B0270933C0280933D0244
:1008500090933E02CDCFCF911F910F910895AF920B
:10086000BF92CF92DF92EF92FF920F931F93CF939D
:10087000DF9300D0CDB7DEB710E084E0B82E95E06E
:10088000A92EBA82198200E021E0AE014F5F5F4FCE
:10089000BE016E5F7F4F812FF9DD0E94F30C6B016B
:1008A0007C010E94F30CDC01CB018C199D09AE097F
:1008B000BF0980329340A105B10598F3FA80AA825E
:1008C00021E04981BE016E5F7F4F812F90DE8A81DA
:1008D000F81621F0011102C001E0D6CF1F5F1330DE
:1008E00081F60F900F90DF91CF911F910F91FF90A4
:1008F000EF90DF90CF90BF90AF90089510DD0E94F1
:10090000EB0CE12C00E815E220E030E040E062E092
:1009100080E0AAD307D480910B01816080930B0102
:100920009EDF0E94F30C6B017C01C1E00E94F30C7E
:10093000DC01CB018C199D09AE09BF0981329340BE
:10094000A105B10550F00E94F30C6B017C0129DF79
:1009500080910B018C2780930B010E94E60CF1D350
:10096000E5CF9C01285C31092431310510F0E0E02D
:1009700008C0220F331FF901EA59FD4F71836083CC
:1009800008958D30910518F00D97EF5FFACF833001
:100990009105D1F128F4009759F0029741F108959B
:1009A0008430910509F43EC0059709F449C00895C3
:1009B0004E2F50E08CE0E89FF0011124EE5BFD4FDC
:1009C00080819B01282723703327232B19F091E086
:1009D000978396839CE0949FF001959FF00D1124DE
:1009E000EE5BFD4F8C7F6370862B808308952E2FE6
:1009F00030E08CE0E89FF0011124EE5BFD4F628354
:100A00008081837051F12BC02E2F30E08CE0E89F65
:100A1000F0011124EE5BFD4F638380818370813090
:100A2000F1F41CC02E2F30E08CE0E89FF00111247F
:100A3000EE5BFD4F648380818370823081F40DC052
:100A40002E2F30E08CE0E89FF0011124EE5BFD4F8B
:100A5000658380818370833011F481E087838CE02B
:100A6000829FF001839FF00D1124EE5BFD4F81E02A
:100A7000808708959C01285C31092431310510F0EC
:100A8000E0E00CC02A30310508F04DC0220F331FC2
:100A9000F901EA59FD4F8081918108958D309105CA
:100AA00018F00D97EF5FFACF8230910519F160F4DD
:100AB0000097C1F00197D1F58CE0E89FF001112477
:100AC000EE5BFD4F81812DC08430910519F1D0F08E
:100AD000059761F58CE0E89FF0011124EE5BFD4F76
:100AE00085811FC08CE0E89FF0011124EE5BFD4F73
:100AF000808117C08CE0E89FF0011124EE5BFD4F70
:100B000082810FC08CE0E89FF0011124EE5BFD4F65
:100B1000838107C08CE0E89FF0011124EE5BFD4F5C
:100B2000848190E0089580E090E008958FEF90E058
:100B300008951F93CF93DF93FC01EB018881998186
:100B4000059709F044C0438150E0542F4427848125
:100B5000482BCA0101978F3C9740C8F5818192814B
:100B60001982188221E02083288139812F5F3F4F2D
:100B700039832883BA0123E0769567952A95E1F7B2
:100B80009A0127703327232B19F011E0160F01C0AB
:100B9000162F1183288139812F5F3F4F3983288396
:100BA000692F70E0782B6F5F7F4F20E0CF010296B6
:100BB0001DD6882321F0DF91CF911F914BC28881F0
:100BC0009981810F911D9983888380E001C083E022
:100BD000DF91CF911F910895CF93DF9300D0CDB7D0
:100BE000DEB7FC01DB018D919C910597F9F48481BE
:100BF00081111CC083819FEF980F9E3FB8F09181B7
:100C000062811A828F3F19F481E0898301C01982C1
:100C100070E0792B6F5F7F4F21E041E050E0CE0123
:100C20000196E4D5882321F015D203C083E001C0EA
:100C300080E00F900F90DF91CF910895CF93DF93D5
:100C4000FC01DB018D919C91069798F1438150E066
:100C5000542F44278481482B9A0127703327CA01D7
:100C6000A3E096958795AA95E1F7232B09F08F5F6E
:100C70009A0121503109203B3740D8F495818913DE
:100C800018C0EB01618170E0762F66278281682BA6
:100C90006F5F7F4F21E0CF010696A8D5882319F01A
:100CA000DF91CF91D7C185E090E09983888380E080
:100CB00001C083E0DF91CF9108951F93CF93DF931D
:100CC000FC01EB0188819981059709F043C04381BC
:100CD00050E0542F44278481482BCA0101978F3C50
:100CE0009740C0F5818192811982188222E0208389
:100CF000288139812F5F3F4F39832883BA0123E050
:100D0000769567952A95E1F79A0127703327232B6B
:100D100019F011E0160F01C0162F118328813981B7
:100D20002F5F3F4F39832883692F70E0782B6F5FE7
:100D30007F4FCF0102965CD5882321F0DF91CF91C0
:100D40001F9188C188819981810F911D9983888322
:100D500080E001C083E0DF91CF911F910895FB01F6
:100D6000208131812530310591F4FC01618170E0F1
:100D7000762F66278281682B6F5F7F4F21E041E0ED
:100D800050E0CF010396ECD4882319F063C183E0CF
:100D9000089580E00895CF93DF93FC01DB018D91EE
:100DA0009C91069740F1438150E0542F4427848161
:100DB000482BCA01019788379105E8F49581842F63
:100DC000880F981318C0EB01618170E0762F6627B9
:100DD0008281682B6F5F7F4F21E0CF010696C0D4E0
:100DE000882319F0DF91CF9135C185E090E0998398
:100DF000888380E001C083E0DF91CF9108950F9355
:100E00001F93CF93DF93FC01DB018D919C9105979C
:100E1000B9F59481092F10E09801215031092D373F
:100E2000310570F5EB01418162811982188283E0FE
:100E30008083288139812F5F3F4F39832883990F21
:100E400091838881998101969983888370E0742BBE
:100E50006F5F7F4F20E0A801CF01029681D48823E5
:100E600029F0DF91CF911F910F91F4C0000F111F56
:100E700088819981080F191F1983088380E001C0B8
:100E800083E0DF91CF911F910F910895CF92DF9270
:100E9000EF92FF920F931F93CF93DF93EC01FB012F
:100EA000808191810A9708F458C00B8110E0102FBF
:100EB00000278C81082BC80101978D37910508F018
:100EC0004EC04F8150E0542F44278885482BCA01DB
:100ED00001978937910508F042C0898590E09A0111
:100EE000220F331F28173907D1F57B01C980DA801B
:100EF0006D8170E0762F66278E81682B6F5F7F4F44
:100F000021E0CE010A962CD481112BC0F701118269
:100F1000108287E18883808191810196918380830B
:100F2000802F880F898380819181019691838083AE
:100F30006D2D70E07C296F5F7F4F20E0A801CE010E
:100F400002960ED481110DC0000F111FF701808190
:100F50009181080F191F1183008380E00BC083E08B
:100F600009C0DF91CF911F910F91FF90EF90DF901B
:100F7000CF9070C0DF91CF911F910F91FF90EF90B4
:100F8000DF90CF9008950F931F93CF93DF93FC01D1
:100F9000DB018D919C911197059709F03DC0C381AC
:100FA000D0E0DC2FCC278481C82BCE0101978C3771
:100FB000910590F58B012181628111961C921E9200
:100FC00084E080838D919C911197019611969C935A
:100FD0008E938C2F880F81838D919C911197019610
:100FE0008D939C9370E0722B6F5F7F4FAE01CF01AA
:100FF0000296B4D3882329F0DF91CF911F910F91EE
:1010000029C0CC0FDD1FF80180819181C80FD91F45
:10101000D183C08380E001C083E0DF91CF911F9135
:101020000F9108950F931F93CF93DF938B01C0917E
:101030008E02D0918F02AE0160E972E0019643D535
:101040002196F801D183C08380E0DF91CF911F9179
:101050000F910895883030F4E82FF0E0EF5CFD4FF9
:101060008081089584E00895CF92DF92EF92FF92FD
:101070000F931F93CF93962F5FEF560F573F08F0B4
:1010800045C06093C102811141C05E2D68017901A4
:10109000642F892F23E83AE03093BE022093BD02EB
:1010A0002CE83AE03093BC022093BB0228EC3AE0F3
:1010B0003093C0022093BF0223E93AE03093BA0292
:1010C0002093B9021092B8021092B70227E13BE0D8
:1010D00030931F0320931E0321E63BE030931B0354
:1010E00020931A0329E93BE030931D0320931C034E
:1010F000052FA7019601D3D1C82F81110AC0B8D0FE
:10110000882331F081E08093300203C0C2E001C047
:10111000C3E08C2FCF911F910F91FF90EF90DF9044
:10112000CF90089580913002813049F4E091BD0262
:10113000F091BE0209951092300280E0089586E099
:101140000895CF93DF931F92CDB7DEB78091300221
:10115000811187C0CE01019696D0813009F083C0FD
:101160009981913089F0923009F07DC0A091B4024C
:10117000B091B5029C919093B1028093B002E0E0EF
:10118000F2E020E030E01EC0E091B902F091BA0236
:1011900042EB52E064EB72E086EB92E0099581113C
:1011A00062C08091B6029091C102891711F081113D
:1011B0005AC082E061D057C02F5F3F4F3396203135
:1011C0003105B1F08081882399F09813F5CFF901AA
:1011D000EE0FFF1F2E0F3F1FF901E050FE4F018061
:1011E000F281E02D62EB72E0CD0109958093B002AF
:1011F0008091B6028823B9F12091B002222309F12F
:10120000E091B402F091B50281E090E09093B302D6
:101210008093B2028091B102806880834091B402D1
:101220005091B5028091B2029091B302BC016F5F00
:101230007F4F7093B3026093B202FA01E80FF91F77
:1012400020834091B2025091B3026091B402709138
:10125000B502E091BF02F091C0028091C1020995F0
:1012600002C086E001C080E00F90DF91CF91089529
:101270001092C20281E0089591E09093C20280939F
:10128000C30281E008952091C202222341F02091FF
:10129000C302FC0120831092C20281E0089580E025
:1012A00008959091D10098609093D100882321F007
:1012B0008091D100806903C08091D1008F768093A6
:1012C000D1008091D100662311F0886201C0877D32
:1012D0008093D10008959A01AB0184E0220F331F5F
:1012E000441F551F8A95D1F760E072E18AE790E0CC
:1012F000B9D321502093D40060E080E0D2DF81E0B8
:1013000008958093D60081E008952091D600FC01D5
:10131000208381E008951F920F920FB60F9211243F
:101320002F933F934F935F936F937F938F939F93ED
:10133000AF93BF93EF93FF93E0911A03F0911B03D8
:101340000995FF91EF91BF91AF919F918F917F91FF
:101350006F915F914F913F912F910F900FBE0F9022
:101360001F9018951F920F920FB60F9211242F9372
:101370003F934F935F936F937F938F939F93AF931D
:10138000BF93EF93FF93E0911E03F0911F03099524
:10139000FF91EF91BF91AF919F918F917F916F914D
:1013A0005F914F913F912F910F900FBE0F901F9023
:1013B000189516BC8091C4029091C502892B41F00A
:1013C00080916E00826080936E008091C40287BD20
:1013D00085B5856085BD089585B58A7F85BDEEE6B6
:1013E000F0E080818D7F8083A99A08959C01A4E814
:1013F000BEE15AD320E23EE440E050E033D33093E4
:10140000C5022093C4022F3F310509F028F414BC13
:1014100015BCE2DF81E0089580E008951F920F92ED
:101420000FB60F9211242F933F934F935F936F93B7
:101430007F938F939F93AF93BF93EF93FF93E0912D
:101440001C03F0911D030995FF91EF91BF91AF919E
:101450009F918F917F916F915F914F913F912F91CC
:101460000F900FBE0F901F901895DC01680F791F29
:101470009FEF4FEFA617B70771F02D919227292FF5
:1014800030E0F901EC51FE4F94919427F901EC51B1
:10149000FF4F4491EFCF892F90E0942B0895CF9286
:1014A000DF92EF92FF920F93862F69017A01F894F1
:1014B00028E0B701A6010FDF8130D9F481E0C8161A
:1014C0008BE4D806E104F10460F4A7019601220F31
:1014D000331F441F551F60EA7FE787E190E0C2D2C7
:1014E00004C023E230E040E050E0C9017FDF8130FA
:1014F00011F083E001C080E078940F91FF90EF90AD
:10150000DF90CF900895F8941092CC0260E081E0D3
:10151000C8DE4FDF78940895F89460E080E0C1DE83
:101520005BDF78940895EF92FF920F931F93CF9310
:10153000DF93F8942091C6023091C7022430310520
:1015400010F485E01DC08A01EB017C016091C602A8
:101550007091C70284E293E088DF892B91F7809134
:101560002403F70180838091C6029091C7020397FC
:10157000F8019183808385E293E09983888380E0FA
:101580007894DF91CF911F910F91FF90EF90089584
:10159000CF93F894C091CC02C13009F044C0282FF9
:1015A000CB0101979093CB028093CA0261E070E077
:1015B0007093C9026093C802FC0120832091C80285
:1015C0003091C902420F531F5093C9024093C80281
:1015D0006091C8027091C90248DF492F2091C8026A
:1015E0003091C902B9016F5F7F4F7093C902609358
:1015F000C802F901EC5DFC4F80838091C802909194
:10160000C9029C012F5F3F4F3093C9022093C8024B
:10161000FC01EC5DFC4F4083C093CD0261E080E0B3
:1016200040DE80E001C085E07894CF910895CF93AB
:10163000DF931F92CDB7DEB7CE01019666DE8091B3
:10164000CC02813031F0B8F18230C9F0833099F1A9
:1016500033C01092C7021092C6028091C6029091C8
:10166000C7029C012F5F3F4F3093C7022093C602F1
:101670002981FC01EC5DFC4F208382E01AC080913F
:10168000C6029091C7028F3F910509F088F48091BE
:10169000C6029091C7029C012F5F3F4F3093C70253
:1016A0002093C6022981FC01EC5DFC4F208303C01E
:1016B00083E08093CC027DDE80E00F90DF91CF91BC
:1016C0000895CF938091CD02882319F0813029F0BD
:1016D0002CC060E081E0E5DD28C08091C8029091D7
:1016E000C902892BC9F0E091CA02F091CB02808136
:1016F00008DE8091CA029091CB0201969093CB02B2
:101700008093CA028091C8029091C9020197909378
:10171000C9028093C80209C083E0AEDDC82F60E033
:1017200081E0BFDD1092CD0201C0C0E08C2FCF91CF
:101730000895CF938091CC02882321F0823031F438
:1017400081E001C080E098DDC82F01C0C0E044DE28
:1017500081E08093CC028C2FCF91089581E0089591
:10176000CF92DF92EF92FF920F931F93CF93DF936D
:10177000211119C07C018A01060F171FEB01C01748
:10178000D10751F16E0181E0C81AD108C60172D9A2
:10179000F7019083C6016ED9F70181832196F2E0AB
:1017A000EF0EF11CECCF2130B9F47C018A01060F59
:1017B000171FEB01C017D10779F0F701608170E0C6
:1017C000762F66278181682BCE010197CAD8F2E077
:1017D000EF0EF11C2196EECF80E0DF91CF911F91AB
:1017E0000F91FF90EF90DF90CF90089581E00895E2
:1017F00081E00895AC018FEF860FFA01E80FF11D2B
:10180000108290E070E061507109292F30E02617B6
:1018100037074CF4DA01A20FB31F80812C912827DF
:1018200020839F5FF2CF08951F920F920FB60F9201
:1018300011248F939F93EF93FF938091C000909119
:10184000C6008C71D9F4E091F40281E08E0F809390
:10185000F402F0E0EB50FD4F9083803211F41092CF
:10186000F4028091F2028F5F803219F08093F202CD
:1018700005C01092F20281E08093F102FF91EF9196
:101880009F918F910F900FBE0F901F901895809190
:10189000F2028823B1F0E091F30291E09E0F909361
:1018A000F302F0E0EB50FD4F8081903211F4109282
:1018B000F302F8949091F20291509093F20278948E
:1018C00008958FEF08951F920F920FB60F92112473
:1018D0008F93EF93FF938091CE028823B1F08150D4
:1018E0008093CE02E091CF0281E08E0F8093CF02F1
:1018F000F0E0EF52FD4F80818093C6008091CF02CF
:10190000803221F41092CF0201C07298FF91EF91C2
:101910008F910F900FBE0F901F9018959091CE024F
:10192000903201F1F8949091CE02911104C020916F
:10193000C00025FD13C0E091D00221E02E0F2093BE
:10194000D002F0E0EF52FD4F8083203211F410926C
:10195000D0029F5F9093CE0278940895729A8093FC
:10196000C600FACF08950F931F93CF93DF93109182
:10197000F202611708F4162F082FEC018C2F801B40
:10198000811718F484DF8993F9CF812FDF91CF91EC
:101990001F910F9108950F931F93CF93DF93729A26
:1019A000EC018C01060F111DC017D10719F08991A8
:1019B000B5DFFACFDF91CF911F910F9108958091FC
:1019C000F202882311F063DFFACF08958091CE02EE
:1019D0008111729A089582E08093B10081E087BB03
:1019E000809370000895F894609116037091170326
:1019F0008091180390911903789408951F920F9283
:101A00000FB60F9211244F935F936F937F938F9331
:101A10009F934091160350911703609118037091A2
:101A200019039091150380E2890F8D3730F083EA16
:101A3000890F4F5F5F4F6F4F7F4F40931603509357
:101A400017036093180370931903809315039F91F4
:101A50008F917F916F915F914F910F900FBE0F907B
:101A60001F901895A1E21A2EAA1BBB1BFD010DC0E9
:101A7000AA1FBB1FEE1FFF1FA217B307E407F5073E
:101A800020F0A21BB30BE40BF50B661F771F881F1A
:101A9000991F1A9469F760957095809590959B01B0
:101AA000AC01BD01CF010895A29FB001B39FC00159
:101AB000A39F700D811D1124911DB29F700D811D7A
:101AC0001124911D0895FB01DC0102C001900D92CB
:0C1AD00041505040D8F70895F894FFCF23
:101ADC0011120804C30703FF0610CB0606AF061746
:101AEC00460701990505EC050F1E06025D06000070
:101AFC0000000000000000000000000000000000DA
:0A1B0C0002000204040404040600B1
:00000001FF
